{
  "address": "0x8aAb35999B252eD52BFA57896A662e0551aBCdfA",
  "abi": [
    {
      "anonymous": false,
      "inputs": [
        {
          "components": [
            {
              "internalType": "address",
              "name": "payee",
              "type": "address"
            },
            {
              "internalType": "address",
              "name": "payer",
              "type": "address"
            },
            {
              "internalType": "uint256",
              "name": "amount",
              "type": "uint256"
            },
            {
              "internalType": "address",
              "name": "currency",
              "type": "address"
            },
            {
              "internalType": "enum AbstractInvoice.Frequency",
              "name": "frequency",
              "type": "uint8"
            },
            {
              "internalType": "uint256",
              "name": "startingTime",
              "type": "uint256"
            },
            {
              "internalType": "uint256",
              "name": "durationForRetiresBeforeFailure",
              "type": "uint256"
            },
            {
              "internalType": "uint256",
              "name": "expiry",
              "type": "uint256"
            },
            {
              "internalType": "uint256",
              "name": "paymentNonce",
              "type": "uint256"
            },
            {
              "internalType": "bytes32",
              "name": "paymentParameter",
              "type": "bytes32"
            }
          ],
          "indexed": false,
          "internalType": "struct AbstractInvoice.InvoiceData",
          "name": "invoiceData",
          "type": "tuple"
        },
        {
          "indexed": false,
          "internalType": "uint256",
          "name": "start",
          "type": "uint256"
        }
      ],
      "name": "ExecuteInvoice",
      "type": "event"
    },
    {
      "anonymous": false,
      "inputs": [
        {
          "indexed": false,
          "internalType": "uint8",
          "name": "version",
          "type": "uint8"
        }
      ],
      "name": "Initialized",
      "type": "event"
    },
    {
      "anonymous": false,
      "inputs": [
        {
          "components": [
            {
              "internalType": "address",
              "name": "payee",
              "type": "address"
            },
            {
              "internalType": "address",
              "name": "payer",
              "type": "address"
            },
            {
              "internalType": "uint256",
              "name": "amount",
              "type": "uint256"
            },
            {
              "internalType": "address",
              "name": "currency",
              "type": "address"
            },
            {
              "internalType": "enum AbstractInvoice.Frequency",
              "name": "frequency",
              "type": "uint8"
            },
            {
              "internalType": "uint256",
              "name": "startingTime",
              "type": "uint256"
            },
            {
              "internalType": "uint256",
              "name": "durationForRetiresBeforeFailure",
              "type": "uint256"
            },
            {
              "internalType": "uint256",
              "name": "expiry",
              "type": "uint256"
            },
            {
              "internalType": "uint256",
              "name": "paymentNonce",
              "type": "uint256"
            },
            {
              "internalType": "bytes32",
              "name": "paymentParameter",
              "type": "bytes32"
            }
          ],
          "indexed": false,
          "internalType": "struct AbstractInvoice.InvoiceData",
          "name": "invoiceData",
          "type": "tuple"
        },
        {
          "indexed": false,
          "internalType": "bytes32",
          "name": "_hash",
          "type": "bytes32"
        },
        {
          "indexed": false,
          "internalType": "uint256",
          "name": "_nonce",
          "type": "uint256"
        }
      ],
      "name": "InvoiceCreated",
      "type": "event"
    },
    {
      "anonymous": false,
      "inputs": [
        {
          "indexed": true,
          "internalType": "address",
          "name": "previousOwner",
          "type": "address"
        },
        {
          "indexed": true,
          "internalType": "address",
          "name": "newOwner",
          "type": "address"
        }
      ],
      "name": "OwnershipTransferred",
      "type": "event"
    },
    {
      "anonymous": false,
      "inputs": [
        {
          "indexed": false,
          "internalType": "contract IERC20Upgradeable",
          "name": "payee",
          "type": "address"
        },
        {
          "indexed": false,
          "internalType": "bool",
          "name": "enabled",
          "type": "bool"
        }
      ],
      "name": "SetCurrency",
      "type": "event"
    },
    {
      "anonymous": false,
      "inputs": [
        {
          "indexed": false,
          "internalType": "address",
          "name": "EXECUTOR_CONTRACT",
          "type": "address"
        }
      ],
      "name": "SetExecutorContract",
      "type": "event"
    },
    {
      "anonymous": false,
      "inputs": [
        {
          "indexed": false,
          "internalType": "uint256",
          "name": "_feePercent",
          "type": "uint256"
        }
      ],
      "name": "SetFeePercent",
      "type": "event"
    },
    {
      "anonymous": false,
      "inputs": [
        {
          "indexed": false,
          "internalType": "address",
          "name": "payee",
          "type": "address"
        },
        {
          "indexed": false,
          "internalType": "bool",
          "name": "enabled",
          "type": "bool"
        }
      ],
      "name": "SetPayee",
      "type": "event"
    },
    {
      "inputs": [],
      "name": "EXECUTOR_CONTRACT",
      "outputs": [
        {
          "internalType": "address",
          "name": "",
          "type": "address"
        }
      ],
      "stateMutability": "view",
      "type": "function"
    },
    {
      "inputs": [],
      "name": "UNIQUE_INDENTIFIER",
      "outputs": [
        {
          "internalType": "string",
          "name": "",
          "type": "string"
        }
      ],
      "stateMutability": "view",
      "type": "function"
    },
    {
      "inputs": [
        {
          "internalType": "uint256",
          "name": "",
          "type": "uint256"
        }
      ],
      "name": "cancelledInvoices",
      "outputs": [
        {
          "internalType": "bool",
          "name": "",
          "type": "bool"
        }
      ],
      "stateMutability": "view",
      "type": "function"
    },
    {
      "inputs": [
        {
          "components": [
            {
              "internalType": "address",
              "name": "payee",
              "type": "address"
            },
            {
              "internalType": "address",
              "name": "payer",
              "type": "address"
            },
            {
              "internalType": "uint256",
              "name": "amount",
              "type": "uint256"
            },
            {
              "internalType": "address",
              "name": "currency",
              "type": "address"
            },
            {
              "internalType": "enum AbstractInvoice.Frequency",
              "name": "frequency",
              "type": "uint8"
            },
            {
              "internalType": "uint256",
              "name": "startingTime",
              "type": "uint256"
            },
            {
              "internalType": "uint256",
              "name": "durationForRetiresBeforeFailure",
              "type": "uint256"
            },
            {
              "internalType": "uint256",
              "name": "expiry",
              "type": "uint256"
            },
            {
              "internalType": "uint256",
              "name": "paymentNonce",
              "type": "uint256"
            },
            {
              "internalType": "bytes32",
              "name": "paymentParameter",
              "type": "bytes32"
            }
          ],
          "internalType": "struct AbstractInvoice.InvoiceData",
          "name": "invoiceData",
          "type": "tuple"
        }
      ],
      "name": "createInvoice",
      "outputs": [
        {
          "components": [
            {
              "internalType": "address",
              "name": "payee",
              "type": "address"
            },
            {
              "internalType": "address",
              "name": "payer",
              "type": "address"
            },
            {
              "internalType": "uint256",
              "name": "amount",
              "type": "uint256"
            },
            {
              "internalType": "address",
              "name": "currency",
              "type": "address"
            },
            {
              "internalType": "enum AbstractInvoice.Frequency",
              "name": "frequency",
              "type": "uint8"
            },
            {
              "internalType": "uint256",
              "name": "startingTime",
              "type": "uint256"
            },
            {
              "internalType": "uint256",
              "name": "durationForRetiresBeforeFailure",
              "type": "uint256"
            },
            {
              "internalType": "uint256",
              "name": "expiry",
              "type": "uint256"
            },
            {
              "internalType": "uint256",
              "name": "paymentNonce",
              "type": "uint256"
            },
            {
              "internalType": "bytes32",
              "name": "paymentParameter",
              "type": "bytes32"
            }
          ],
          "internalType": "struct AbstractInvoice.InvoiceData",
          "name": "returnedInvoice",
          "type": "tuple"
        },
        {
          "internalType": "bytes32",
          "name": "_hash",
          "type": "bytes32"
        },
        {
          "internalType": "uint256",
          "name": "_nonce",
          "type": "uint256"
        }
      ],
      "stateMutability": "nonpayable",
      "type": "function"
    },
    {
      "inputs": [
        {
          "internalType": "contract IERC20Upgradeable",
          "name": "",
          "type": "address"
        }
      ],
      "name": "currencies",
      "outputs": [
        {
          "internalType": "bool",
          "name": "",
          "type": "bool"
        }
      ],
      "stateMutability": "view",
      "type": "function"
    },
    {
      "inputs": [
        {
          "components": [
            {
              "internalType": "address",
              "name": "payee",
              "type": "address"
            },
            {
              "internalType": "address",
              "name": "payer",
              "type": "address"
            },
            {
              "internalType": "uint256",
              "name": "amount",
              "type": "uint256"
            },
            {
              "internalType": "address",
              "name": "currency",
              "type": "address"
            },
            {
              "internalType": "enum AbstractInvoice.Frequency",
              "name": "frequency",
              "type": "uint8"
            },
            {
              "internalType": "uint256",
              "name": "startingTime",
              "type": "uint256"
            },
            {
              "internalType": "uint256",
              "name": "durationForRetiresBeforeFailure",
              "type": "uint256"
            },
            {
              "internalType": "uint256",
              "name": "expiry",
              "type": "uint256"
            },
            {
              "internalType": "uint256",
              "name": "paymentNonce",
              "type": "uint256"
            },
            {
              "internalType": "bytes32",
              "name": "paymentParameter",
              "type": "bytes32"
            }
          ],
          "internalType": "struct AbstractInvoice.InvoiceData",
          "name": "invoiceData",
          "type": "tuple"
        },
        {
          "internalType": "bytes",
          "name": "signature",
          "type": "bytes"
        }
      ],
      "name": "execute",
      "outputs": [],
      "stateMutability": "nonpayable",
      "type": "function"
    },
    {
      "inputs": [],
      "name": "feePercent",
      "outputs": [
        {
          "internalType": "uint256",
          "name": "",
          "type": "uint256"
        }
      ],
      "stateMutability": "view",
      "type": "function"
    },
    {
      "inputs": [
        {
          "internalType": "address",
          "name": "_EXECUTOR_CONTRACT",
          "type": "address"
        }
      ],
      "name": "initialize",
      "outputs": [],
      "stateMutability": "nonpayable",
      "type": "function"
    },
    {
      "inputs": [
        {
          "internalType": "address",
          "name": "user",
          "type": "address"
        }
      ],
      "name": "isAdmin",
      "outputs": [
        {
          "internalType": "bool",
          "name": "",
          "type": "bool"
        }
      ],
      "stateMutability": "view",
      "type": "function"
    },
    {
      "inputs": [],
      "name": "nonce",
      "outputs": [
        {
          "internalType": "uint256",
          "name": "",
          "type": "uint256"
        }
      ],
      "stateMutability": "view",
      "type": "function"
    },
    {
      "inputs": [],
      "name": "owner",
      "outputs": [
        {
          "internalType": "address",
          "name": "",
          "type": "address"
        }
      ],
      "stateMutability": "view",
      "type": "function"
    },
    {
      "inputs": [
        {
          "internalType": "address",
          "name": "",
          "type": "address"
        }
      ],
      "name": "payees",
      "outputs": [
        {
          "internalType": "bool",
          "name": "",
          "type": "bool"
        }
      ],
      "stateMutability": "view",
      "type": "function"
    },
    {
      "inputs": [],
      "name": "renounceOwnership",
      "outputs": [],
      "stateMutability": "nonpayable",
      "type": "function"
    },
    {
      "inputs": [
        {
          "internalType": "contract IERC20Upgradeable[]",
          "name": "_currencies",
          "type": "address[]"
        },
        {
          "internalType": "bool",
          "name": "enabled",
          "type": "bool"
        }
      ],
      "name": "setCurrency",
      "outputs": [],
      "stateMutability": "nonpayable",
      "type": "function"
    },
    {
      "inputs": [
        {
          "internalType": "address",
          "name": "_EXECUTOR_CONTRACT",
          "type": "address"
        }
      ],
      "name": "setExecutorContract",
      "outputs": [],
      "stateMutability": "nonpayable",
      "type": "function"
    },
    {
      "inputs": [
        {
          "internalType": "uint256",
          "name": "_feePercent",
          "type": "uint256"
        }
      ],
      "name": "setFeePercent",
      "outputs": [],
      "stateMutability": "nonpayable",
      "type": "function"
    },
    {
      "inputs": [
        {
          "internalType": "address",
          "name": "newOwner",
          "type": "address"
        }
      ],
      "name": "transferOwnership",
      "outputs": [],
      "stateMutability": "nonpayable",
      "type": "function"
    },
    {
      "inputs": [
        {
          "components": [
            {
              "internalType": "address",
              "name": "payee",
              "type": "address"
            },
            {
              "internalType": "address",
              "name": "payer",
              "type": "address"
            },
            {
              "internalType": "uint256",
              "name": "amount",
              "type": "uint256"
            },
            {
              "internalType": "address",
              "name": "currency",
              "type": "address"
            },
            {
              "internalType": "enum AbstractInvoice.Frequency",
              "name": "frequency",
              "type": "uint8"
            },
            {
              "internalType": "uint256",
              "name": "startingTime",
              "type": "uint256"
            },
            {
              "internalType": "uint256",
              "name": "durationForRetiresBeforeFailure",
              "type": "uint256"
            },
            {
              "internalType": "uint256",
              "name": "expiry",
              "type": "uint256"
            },
            {
              "internalType": "uint256",
              "name": "paymentNonce",
              "type": "uint256"
            },
            {
              "internalType": "bytes32",
              "name": "paymentParameter",
              "type": "bytes32"
            }
          ],
          "internalType": "struct AbstractInvoice.InvoiceData",
          "name": "invoiceData",
          "type": "tuple"
        },
        {
          "internalType": "bytes",
          "name": "signature",
          "type": "bytes"
        }
      ],
      "name": "verifySignature",
      "outputs": [
        {
          "internalType": "bool",
          "name": "",
          "type": "bool"
        }
      ],
      "stateMutability": "view",
      "type": "function"
    },
    {
      "inputs": [
        {
          "internalType": "address[]",
          "name": "_payees",
          "type": "address[]"
        },
        {
          "internalType": "bool",
          "name": "enabled",
          "type": "bool"
        }
      ],
      "name": "whitelistPayee",
      "outputs": [],
      "stateMutability": "nonpayable",
      "type": "function"
    }
  ],
  "transactionHash": "0x590600c717e5930cb1b5ac1d73c43677f45cf5438c11ca71367939dfc0a30eb8",
  "args": [],
  "numDeployments": 1,
  "solcInputHash": "94a548fbec3aee7e66903091f213a40a",
  "bytecode": "0x608060405234801561001057600080fd5b5061417e806100206000396000f3fe608060405234801561001057600080fd5b50600436106101215760003560e01c806383021728116100ad578063c623cabe11610071578063c623cabe14610308578063d2f4e74e14610326578063f2fde38b14610344578063f33f359c14610360578063fc21dead1461037c57610121565b806383021728146102645780638da5cb5b1461029457806397dc7556146102b2578063affed0e0146102ce578063c4d66de8146102ec57610121565b80636036cba3116100f45780636036cba3146101be578063715018a6146101ee57806371c3a60b146101f85780637ce3489b1461022a5780637fd6f15c1461024657610121565b8063247db6631461012657806324d7806c14610142578063310441fa146101725780635796c71c146101a2575b600080fd5b610140600480360381019061013b91906128d9565b6103ac565b005b61015c60048036038101906101579190612850565b610527565b6040516101699190613143565b60405180910390f35b61018c60048036038101906101879190612850565b61057d565b6040516101999190613143565b60405180910390f35b6101bc60048036038101906101b791906129ea565b61059d565b005b6101d860048036038101906101d3919061298f565b610642565b6040516101e59190613143565b60405180910390f35b6101f6610662565b005b610212600480360381019061020d91906129bc565b610676565b6040516102219392919061357f565b60405180910390f35b610244600480360381019061023f9190612a48565b61076c565b005b61024e610891565b60405161025b91906135e4565b60405180910390f35b61027e600480360381019061027991906129ea565b610897565b60405161028b9190613143565b60405180910390f35b61029c6108e3565b6040516102a991906130c8565b60405180910390f35b6102cc60048036038101906102c7919061287d565b61090d565b005b6102d6610a88565b6040516102e391906135e4565b60405180910390f35b61030660048036038101906103019190612850565b610a8e565b005b610310610ddf565b60405161031d9190613217565b60405180910390f35b61032e610e6d565b60405161033b91906130c8565b60405180910390f35b61035e60048036038101906103599190612850565b610e93565b005b61037a60048036038101906103759190612850565b610f17565b005b61039660048036038101906103919190612a48565b611047565b6040516103a39190613143565b60405180910390f35b6103bc6103b7611067565b610527565b8061040057506103ca611067565b73ffffffffffffffffffffffffffffffffffffffff166103e86108e3565b73ffffffffffffffffffffffffffffffffffffffff16145b61043f576040517f08c379a0000000000000000000000000000000000000000000000000000000008152600401610436906133c3565b60405180910390fd5b60005b8251811015610522578160a0600085848151811061046357610462613b02565b5b602002602001015173ffffffffffffffffffffffffffffffffffffffff1673ffffffffffffffffffffffffffffffffffffffff16815260200190815260200160002060006101000a81548160ff0219169083151502179055507f98c0c4bde5f642566cdaebfb7cd2cdc72a98bc7f3440e38c19e1d58d92388d348382815181106104f0576104ef613b02565b5b6020026020010151836040516105079291906131d3565b60405180910390a1808061051a906139c2565b915050610442565b505050565b6000609760008373ffffffffffffffffffffffffffffffffffffffff1673ffffffffffffffffffffffffffffffffffffffff16815260200190815260200160002060009054906101000a900460ff169050919050565b609f6020528060005260406000206000915054906101000a900460ff1681565b609960009054906101000a900473ffffffffffffffffffffffffffffffffffffffff1673ffffffffffffffffffffffffffffffffffffffff166105de611067565b73ffffffffffffffffffffffffffffffffffffffff1614610634576040517f08c379a000000000000000000000000000000000000000000000000000000000815260040161062b90613363565b60405180910390fd5b61063e828261106f565b5050565b60a06020528060005260406000206000915054906101000a900460ff1681565b61066a6110c5565b6106746000611143565b565b61067e6123b9565b600080609f600061068d611067565b73ffffffffffffffffffffffffffffffffffffffff1673ffffffffffffffffffffffffffffffffffffffff16815260200190815260200160002060009054906101000a900460ff16610714576040517f08c379a000000000000000000000000000000000000000000000000000000000815260040161070b90613303565b60405180910390fd5b61071d84611209565b809350819450505060a15490507ffd530febd28afa22a61e317d9ac622adc9a1d16eecb7b8df77d00f19cc4dc70683838360405161075d9392919061357f565b60405180910390a19193909250565b61077c610777611067565b610527565b806107c0575061078a611067565b73ffffffffffffffffffffffffffffffffffffffff166107a86108e3565b73ffffffffffffffffffffffffffffffffffffffff16145b6107ff576040517f08c379a00000000000000000000000000000000000000000000000000000000081526004016107f6906133c3565b60405180910390fd5b60648110801561080f5750600081115b61084e576040517f08c379a000000000000000000000000000000000000000000000000000000000815260040161084590613403565b60405180910390fd5b80609a819055507f54b9dbb1167ce9a1e141b9c71f73394e64bf53da85077b4bcdcff626ba943f58609a5460405161088691906135e4565b60405180910390a150565b609a5481565b600080836040516020016108ab9190613563565b6040516020818303038152906040528051906020012090506108da84602001516108d4836115ac565b856115dc565b91505092915050565b6000603360009054906101000a900473ffffffffffffffffffffffffffffffffffffffff16905090565b61091d610918611067565b610527565b80610961575061092b611067565b73ffffffffffffffffffffffffffffffffffffffff166109496108e3565b73ffffffffffffffffffffffffffffffffffffffff16145b6109a0576040517f08c379a0000000000000000000000000000000000000000000000000000000008152600401610997906133c3565b60405180910390fd5b60005b8251811015610a835781609f60008584815181106109c4576109c3613b02565b5b602002602001015173ffffffffffffffffffffffffffffffffffffffff1673ffffffffffffffffffffffffffffffffffffffff16815260200190815260200160002060006101000a81548160ff0219169083151502179055507fd23249e66bcd36732dfc58e0713ce7e15bd57a8fe27ce72dffa3035ccfa7ce5d838281518110610a5157610a50613b02565b5b602002602001015183604051610a6892919061311a565b60405180910390a18080610a7b906139c2565b9150506109a3565b505050565b60a15481565b60008060019054906101000a900460ff16159050808015610abf5750600160008054906101000a900460ff1660ff16105b80610aec5750610ace306117c1565b158015610aeb5750600160008054906101000a900460ff1660ff16145b5b610b2b576040517f08c379a0000000000000000000000000000000000000000000000000000000008152600401610b2290613343565b60405180910390fd5b60016000806101000a81548160ff021916908360ff1602179055508015610b68576001600060016101000a81548160ff0219169083151502179055505b610b706117e4565b6040518060400160405280600881526020017f504249542d41505000000000000000000000000000000000000000000000000081525060989080519060200190610bbb929190612463565b50600a609a819055506000609b6000806005811115610bdd57610bdc613aa4565b5b6005811115610bef57610bee613aa4565b5b81526020019081526020016000208190555062015180609b600060016005811115610c1d57610c1c613aa4565b5b6005811115610c2f57610c2e613aa4565b5b81526020019081526020016000208190555062093a80609b600060026005811115610c5d57610c5c613aa4565b5b6005811115610c6f57610c6e613aa4565b5b81526020019081526020016000208190555062278d00609b600060036005811115610c9d57610c9c613aa4565b5b6005811115610caf57610cae613aa4565b5b81526020019081526020016000208190555062ed4e00609b600060046005811115610cdd57610cdc613aa4565b5b6005811115610cef57610cee613aa4565b5b8152602001908152602001600020819055506301e13380609b6000600580811115610d1d57610d1c613aa4565b5b6005811115610d2f57610d2e613aa4565b5b81526020019081526020016000208190555081609960006101000a81548173ffffffffffffffffffffffffffffffffffffffff021916908373ffffffffffffffffffffffffffffffffffffffff1602179055508015610ddb5760008060016101000a81548160ff0219169083151502179055507f7f26b83ff96e1f2b6a682f133852f6798a09c465da95921460cefb38474024986001604051610dd291906131fc565b60405180910390a15b5050565b60988054610dec9061395f565b80601f0160208091040260200160405190810160405280929190818152602001828054610e189061395f565b8015610e655780601f10610e3a57610100808354040283529160200191610e65565b820191906000526020600020905b815481529060010190602001808311610e4857829003601f168201915b505050505081565b609960009054906101000a900473ffffffffffffffffffffffffffffffffffffffff1681565b610e9b6110c5565b600073ffffffffffffffffffffffffffffffffffffffff168173ffffffffffffffffffffffffffffffffffffffff161415610f0b576040517f08c379a0000000000000000000000000000000000000000000000000000000008152600401610f0290613283565b60405180910390fd5b610f1481611143565b50565b610f27610f22611067565b610527565b80610f6b5750610f35611067565b73ffffffffffffffffffffffffffffffffffffffff16610f536108e3565b73ffffffffffffffffffffffffffffffffffffffff16145b610faa576040517f08c379a0000000000000000000000000000000000000000000000000000000008152600401610fa1906133c3565b60405180910390fd5b80609960006101000a81548173ffffffffffffffffffffffffffffffffffffffff021916908373ffffffffffffffffffffffffffffffffffffffff1602179055507f231035407135f49527a72d623317b2b898063c809b7813691fdee67a5135c2f4609960009054906101000a900473ffffffffffffffffffffffffffffffffffffffff1660405161103c91906130c8565b60405180910390a150565b609e6020528060005260406000206000915054906101000a900460ff1681565b600033905090565b6110798282610897565b6110b8576040517f08c379a00000000000000000000000000000000000000000000000000000000081526004016110af906133e3565b60405180910390fd5b6110c182611845565b5050565b6110cd611067565b73ffffffffffffffffffffffffffffffffffffffff166110eb6108e3565b73ffffffffffffffffffffffffffffffffffffffff1614611141576040517f08c379a000000000000000000000000000000000000000000000000000000000815260040161113890613383565b60405180910390fd5b565b6000603360009054906101000a900473ffffffffffffffffffffffffffffffffffffffff16905081603360006101000a81548173ffffffffffffffffffffffffffffffffffffffff021916908373ffffffffffffffffffffffffffffffffffffffff1602179055508173ffffffffffffffffffffffffffffffffffffffff168173ffffffffffffffffffffffffffffffffffffffff167f8be0079c531659141344cd1fd0a4f28419497f9722a3daafe3b4186f6b6457e060405160405180910390a35050565b6112116123b9565b600080836040015111611259576040517f08c379a0000000000000000000000000000000000000000000000000000000008152600401611250906133a3565b60405180910390fd5b609f6000846000015173ffffffffffffffffffffffffffffffffffffffff1673ffffffffffffffffffffffffffffffffffffffff16815260200190815260200160002060009054906101000a900460ff166112e9576040517f08c379a00000000000000000000000000000000000000000000000000000000081526004016112e0906134e3565b60405180910390fd5b60a06000846060015173ffffffffffffffffffffffffffffffffffffffff1673ffffffffffffffffffffffffffffffffffffffff16815260200190815260200160002060009054906101000a900460ff16611379576040517f08c379a000000000000000000000000000000000000000000000000000000000815260040161137090613323565b60405180910390fd5b610e10426113879190613710565b8360a0015110156113cd576040517f08c379a00000000000000000000000000000000000000000000000000000000081526004016113c490613543565b60405180910390fd5b8260a001518360e001511180156113fa5750620151808360a001518460e001516113f791906137f1565b10155b611439576040517f08c379a000000000000000000000000000000000000000000000000000000000815260040161143090613483565b60405180910390fd5b61a8c08360c001511015611482576040517f08c379a0000000000000000000000000000000000000000000000000000000008152600401611479906132a3565b60405180910390fd5b600160a160008282546114959190613710565b9250508190555060986114a960a154611b18565b6040516020016114ba929190613239565b604051602081830303815290604052805190602001208361012001818152505060a15483610100018181525050826040516020016114f89190613563565b60405160208183030381529060405280519060200120905060011515609c600083815260200190815260200160002060009054906101000a900460ff1615151415611578576040517f08c379a000000000000000000000000000000000000000000000000000000000815260040161156f90613503565b60405180910390fd5b6001609c600083815260200190815260200160002060006101000a81548160ff021916908315150217905550829150915091565b6000816040516020016115bf91906130a2565b604051602081830303815290604052805190602001209050919050565b60008060006115eb8585611c79565b915091506000600481111561160357611602613aa4565b5b81600481111561161657611615613aa4565b5b14801561164e57508573ffffffffffffffffffffffffffffffffffffffff168273ffffffffffffffffffffffffffffffffffffffff16145b1561165e576001925050506117ba565b6000808773ffffffffffffffffffffffffffffffffffffffff16631626ba7e60e01b888860405160240161169392919061315e565b604051602081830303815290604052907bffffffffffffffffffffffffffffffffffffffffffffffffffffffff19166020820180517bffffffffffffffffffffffffffffffffffffffffffffffffffffffff83818316178352505050506040516116fd919061308b565b600060405180830381855afa9150503d8060008114611738576040519150601f19603f3d011682016040523d82523d6000602084013e61173d565b606091505b5091509150818015611750575060208151145b80156117b35750631626ba7e60e01b7bffffffffffffffffffffffffffffffffffffffffffffffffffffffff1916818060200190518101906117929190612962565b7bffffffffffffffffffffffffffffffffffffffffffffffffffffffff1916145b9450505050505b9392505050565b6000808273ffffffffffffffffffffffffffffffffffffffff163b119050919050565b600060019054906101000a900460ff16611833576040517f08c379a000000000000000000000000000000000000000000000000000000000815260040161182a90613463565b60405180910390fd5b61183b611cfc565b611843611d55565b565b6000816040516020016118589190613563565b604051602081830303815290604052805190602001209050609c600082815260200190815260200160002060009054906101000a900460ff166118d0576040517f08c379a00000000000000000000000000000000000000000000000000000000081526004016118c790613523565b60405180910390fd5b6000806118ef8460a0015185608001518660c001518760e00151611dae565b9150915081611933576040517f08c379a000000000000000000000000000000000000000000000000000000000815260040161192a906134a3565b60405180910390fd5b60001515609d6000858152602001908152602001600020600083815260200190815260200160002060009054906101000a900460ff161515146119ab576040517f08c379a00000000000000000000000000000000000000000000000000000000081526004016119a2906132c3565b60405180910390fd5b60011515609e6000866101000151815260200190815260200160002060009054906101000a900460ff1615151415611a18576040517f08c379a0000000000000000000000000000000000000000000000000000000008152600401611a0f90613443565b60405180910390fd5b600080611a288660400151611e71565b915091506001609d6000878152602001908152602001600020600085815260200190815260200160002060006101000a81548160ff021916908315150217905550611aa28660200151876000015184896060015173ffffffffffffffffffffffffffffffffffffffff16611eb0909392919063ffffffff16565b611ad786602001513083896060015173ffffffffffffffffffffffffffffffffffffffff16611eb0909392919063ffffffff16565b7f51d7e02f1a2aa96fe359b2ff5f854d457bc0064457e7805b71eaf2418b1c8b728684604051611b089291906135b9565b60405180910390a1505050505050565b60606000821415611b60576040518060400160405280600181526020017f30000000000000000000000000000000000000000000000000000000000000008152509050611c74565b600082905060005b60008214611b92578080611b7b906139c2565b915050600a82611b8b9190613766565b9150611b68565b60008167ffffffffffffffff811115611bae57611bad613b31565b5b6040519080825280601f01601f191660200182016040528015611be05781602001600182028036833780820191505090505b5090505b60008514611c6d57600182611bf991906137f1565b9150600a85611c089190613a15565b6030611c149190613710565b60f81b818381518110611c2a57611c29613b02565b5b60200101907effffffffffffffffffffffffffffffffffffffffffffffffffffffffffffff1916908160001a905350600a85611c669190613766565b9450611be4565b8093505050505b919050565b600080604183511415611cbb5760008060006020860151925060408601519150606086015160001a9050611caf87828585611f39565b94509450505050611cf5565b604083511415611cec576000806020850151915060408501519050611ce1868383612046565b935093505050611cf5565b60006002915091505b9250929050565b600060019054906101000a900460ff16611d4b576040517f08c379a0000000000000000000000000000000000000000000000000000000008152600401611d4290613463565b60405180910390fd5b611d536120a5565b565b600060019054906101000a900460ff16611da4576040517f08c379a0000000000000000000000000000000000000000000000000000000008152600401611d9b90613463565b60405180910390fd5b611dac612106565b565b600080600086905060008582611dc49190613710565b90505b84811015611e5e57609b6000886005811115611de657611de5613aa4565b5b6005811115611df857611df7613aa4565b5b81526020019081526020016000205482611e129190613710565b91508582611e209190613710565b90508142118015611e3057508481105b15611e4357600182935093505050611e68565b42821115611e5957600080935093505050611e68565b611dc7565b6000809350935050505b94509492505050565b600080612710609a54606485611e879190613797565b611e919190613797565b611e9b9190613766565b90508083611ea991906137f1565b9150915091565b611f33846323b872dd60e01b858585604051602401611ed1939291906130e3565b604051602081830303815290604052907bffffffffffffffffffffffffffffffffffffffffffffffffffffffff19166020820180517bffffffffffffffffffffffffffffffffffffffffffffffffffffffff838183161783525050505061215f565b50505050565b6000807f7fffffffffffffffffffffffffffffff5d576e7357a4501ddfe92f46681b20a08360001c1115611f7457600060039150915061203d565b601b8560ff1614158015611f8c5750601c8560ff1614155b15611f9e57600060049150915061203d565b600060018787878760405160008152602001604052604051611fc3949392919061318e565b6020604051602081039080840390855afa158015611fe5573d6000803e3d6000fd5b505050602060405103519050600073ffffffffffffffffffffffffffffffffffffffff168173ffffffffffffffffffffffffffffffffffffffff1614156120345760006001925092505061203d565b80600092509250505b94509492505050565b60008060007f7fffffffffffffffffffffffffffffffffffffffffffffffffffffffffffffff60001b841690506000601b60ff8660001c901c6120899190613710565b905061209787828885611f39565b935093505050935093915050565b600060019054906101000a900460ff166120f4576040517f08c379a00000000000000000000000000000000000000000000000000000000081526004016120eb90613463565b60405180910390fd5b6121046120ff611067565b611143565b565b600060019054906101000a900460ff16612155576040517f08c379a000000000000000000000000000000000000000000000000000000000815260040161214c90613463565b60405180910390fd5b6001606581905550565b60006121c1826040518060400160405280602081526020017f5361666545524332303a206c6f772d6c6576656c2063616c6c206661696c65648152508573ffffffffffffffffffffffffffffffffffffffff166122269092919063ffffffff16565b905060008151111561222157808060200190518101906121e19190612935565b612220576040517f08c379a0000000000000000000000000000000000000000000000000000000008152600401612217906134c3565b60405180910390fd5b5b505050565b6060612235848460008561223e565b90509392505050565b606082471015612283576040517f08c379a000000000000000000000000000000000000000000000000000000000815260040161227a906132e3565b60405180910390fd5b61228c856117c1565b6122cb576040517f08c379a00000000000000000000000000000000000000000000000000000000081526004016122c290613423565b60405180910390fd5b6000808673ffffffffffffffffffffffffffffffffffffffff1685876040516122f4919061308b565b60006040518083038185875af1925050503d8060008114612331576040519150601f19603f3d011682016040523d82523d6000602084013e612336565b606091505b5091509150612346828286612352565b92505050949350505050565b60608315612362578290506123b2565b6000835111156123755782518084602001fd5b816040517f08c379a00000000000000000000000000000000000000000000000000000000081526004016123a99190613217565b60405180910390fd5b9392505050565b604051806101400160405280600073ffffffffffffffffffffffffffffffffffffffff168152602001600073ffffffffffffffffffffffffffffffffffffffff16815260200160008152602001600073ffffffffffffffffffffffffffffffffffffffff1681526020016000600581111561243757612436613aa4565b5b815260200160008152602001600081526020016000815260200160008152602001600080191681525090565b82805461246f9061395f565b90600052602060002090601f01602090048101928261249157600085556124d8565b82601f106124aa57805160ff19168380011785556124d8565b828001600101855582156124d8579182015b828111156124d75782518255916020019190600101906124bc565b5b5090506124e591906124e9565b5090565b5b808211156125025760008160009055506001016124ea565b5090565b600061251961251484613624565b6135ff565b9050808382526020820190508285602086028201111561253c5761253b613b6a565b5b60005b8581101561256c57816125528882612628565b84526020840193506020830192505060018101905061253f565b5050509392505050565b600061258961258484613650565b6135ff565b905080838252602082019050828560208602820111156125ac576125ab613b6a565b5b60005b858110156125dc57816125c2888261271b565b8452602084019350602083019250506001810190506125af565b5050509392505050565b60006125f96125f48461367c565b6135ff565b90508281526020810184848401111561261557612614613b6f565b5b61262084828561391d565b509392505050565b600081359050612637816140ae565b92915050565b600082601f83011261265257612651613b60565b5b8135612662848260208601612506565b91505092915050565b600082601f8301126126805761267f613b60565b5b8135612690848260208601612576565b91505092915050565b6000813590506126a8816140c5565b92915050565b6000815190506126bd816140c5565b92915050565b6000813590506126d2816140dc565b92915050565b6000815190506126e7816140f3565b92915050565b600082601f83011261270257612701613b60565b5b81356127128482602086016125e6565b91505092915050565b60008135905061272a8161410a565b92915050565b60008135905061273f81614121565b92915050565b6000610140828403121561275c5761275b613b65565b5b6127676101406135ff565b9050600061277784828501612628565b600083015250602061278b84828501612628565b602083015250604061279f8482850161283b565b60408301525060606127b384828501612628565b60608301525060806127c784828501612730565b60808301525060a06127db8482850161283b565b60a08301525060c06127ef8482850161283b565b60c08301525060e06128038482850161283b565b60e0830152506101006128188482850161283b565b6101008301525061012061282e848285016126c3565b6101208301525092915050565b60008135905061284a81614131565b92915050565b60006020828403121561286657612865613b79565b5b600061287484828501612628565b91505092915050565b6000806040838503121561289457612893613b79565b5b600083013567ffffffffffffffff8111156128b2576128b1613b74565b5b6128be8582860161263d565b92505060206128cf85828601612699565b9150509250929050565b600080604083850312156128f0576128ef613b79565b5b600083013567ffffffffffffffff81111561290e5761290d613b74565b5b61291a8582860161266b565b925050602061292b85828601612699565b9150509250929050565b60006020828403121561294b5761294a613b79565b5b6000612959848285016126ae565b91505092915050565b60006020828403121561297857612977613b79565b5b6000612986848285016126d8565b91505092915050565b6000602082840312156129a5576129a4613b79565b5b60006129b38482850161271b565b91505092915050565b600061014082840312156129d3576129d2613b79565b5b60006129e184828501612745565b91505092915050565b6000806101608385031215612a0257612a01613b79565b5b6000612a1085828601612745565b92505061014083013567ffffffffffffffff811115612a3257612a31613b74565b5b612a3e858286016126ed565b9150509250929050565b600060208284031215612a5e57612a5d613b79565b5b6000612a6c8482850161283b565b91505092915050565b612a7e81613825565b82525050565b612a8d81613825565b82525050565b612a9c81613837565b82525050565b612aab81613843565b82525050565b612aba81613843565b82525050565b612ad1612acc82613843565b613a0b565b82525050565b6000612ae2826136c2565b612aec81856136d8565b9350612afc81856020860161392c565b612b0581613b7e565b840191505092915050565b6000612b1b826136c2565b612b2581856136e9565b9350612b3581856020860161392c565b80840191505092915050565b612b4a816138d5565b82525050565b612b59816138f9565b82525050565b612b688161390b565b82525050565b6000612b79826136cd565b612b8381856136f4565b9350612b9381856020860161392c565b612b9c81613b7e565b840191505092915050565b60008154612bb48161395f565b612bbe81866136f4565b94506001821660008114612bd95760018114612beb57612c1e565b60ff1983168652602086019350612c1e565b612bf4856136ad565b60005b83811015612c1657815481890152600182019150602081019050612bf7565b808801955050505b50505092915050565b6000612c34601c83613705565b9150612c3f82613b8f565b601c82019050919050565b6000612c576026836136f4565b9150612c6282613bb8565b604082019050919050565b6000612c7a6034836136f4565b9150612c8582613c07565b604082019050919050565b6000612c9d600c836136f4565b9150612ca882613c56565b602082019050919050565b6000612cc06026836136f4565b9150612ccb82613c7f565b604082019050919050565b6000612ce36014836136f4565b9150612cee82613cce565b602082019050919050565b6000612d066014836136f4565b9150612d1182613cf7565b602082019050919050565b6000612d29602e836136f4565b9150612d3482613d20565b604082019050919050565b6000612d4c6016836136f4565b9150612d5782613d6f565b602082019050919050565b6000612d6f6020836136f4565b9150612d7a82613d98565b602082019050919050565b6000612d926012836136f4565b9150612d9d82613dc1565b602082019050919050565b6000612db56013836136f4565b9150612dc082613dea565b602082019050919050565b6000612dd8601d836136f4565b9150612de382613e13565b602082019050919050565b6000612dfb600c836136f4565b9150612e0682613e3c565b602082019050919050565b6000612e1e601d836136f4565b9150612e2982613e65565b602082019050919050565b6000612e416001836136f4565b9150612e4c82613e8e565b602082019050919050565b6000612e646011836136f4565b9150612e6f82613eb7565b602082019050919050565b6000612e87602b836136f4565b9150612e9282613ee0565b604082019050919050565b6000612eaa6026836136f4565b9150612eb582613f2f565b604082019050919050565b6000612ecd601c836136f4565b9150612ed882613f7e565b602082019050919050565b6000612ef0602a836136f4565b9150612efb82613fa7565b604082019050919050565b6000612f13600b836136f4565b9150612f1e82613ff6565b602082019050919050565b6000612f36600f836136f4565b9150612f418261401f565b602082019050919050565b6000612f596011836136f4565b9150612f6482614048565b602082019050919050565b6000612f7c6020836136f4565b9150612f8782614071565b602082019050919050565b61014082016000820151612fa96000850182612a75565b506020820151612fbc6020850182612a75565b506040820151612fcf604085018261305e565b506060820151612fe26060850182612a75565b506080820151612ff56080850182612b50565b5060a082015161300860a085018261305e565b5060c082015161301b60c085018261305e565b5060e082015161302e60e085018261305e565b5061010082015161304361010085018261305e565b50610120820151613058610120850182612aa2565b50505050565b613067816138be565b82525050565b613076816138be565b82525050565b613085816138c8565b82525050565b60006130978284612b10565b915081905092915050565b60006130ad82612c27565b91506130b98284612ac0565b60208201915081905092915050565b60006020820190506130dd6000830184612a84565b92915050565b60006060820190506130f86000830186612a84565b6131056020830185612a84565b613112604083018461306d565b949350505050565b600060408201905061312f6000830185612a84565b61313c6020830184612a93565b9392505050565b60006020820190506131586000830184612a93565b92915050565b60006040820190506131736000830185612ab1565b81810360208301526131858184612ad7565b90509392505050565b60006080820190506131a36000830187612ab1565b6131b0602083018661307c565b6131bd6040830185612ab1565b6131ca6060830184612ab1565b95945050505050565b60006040820190506131e86000830185612b41565b6131f56020830184612a93565b9392505050565b60006020820190506132116000830184612b5f565b92915050565b600060208201905081810360008301526132318184612b6e565b905092915050565b600060608201905081810360008301526132538185612ba7565b9050818103602083015261326681612e34565b9050818103604083015261327a8184612b6e565b90509392505050565b6000602082019050818103600083015261329c81612c4a565b9050919050565b600060208201905081810360008301526132bc81612c6d565b9050919050565b600060208201905081810360008301526132dc81612c90565b9050919050565b600060208201905081810360008301526132fc81612cb3565b9050919050565b6000602082019050818103600083015261331c81612cd6565b9050919050565b6000602082019050818103600083015261333c81612cf9565b9050919050565b6000602082019050818103600083015261335c81612d1c565b9050919050565b6000602082019050818103600083015261337c81612d3f565b9050919050565b6000602082019050818103600083015261339c81612d62565b9050919050565b600060208201905081810360008301526133bc81612d85565b9050919050565b600060208201905081810360008301526133dc81612da8565b9050919050565b600060208201905081810360008301526133fc81612dcb565b9050919050565b6000602082019050818103600083015261341c81612dee565b9050919050565b6000602082019050818103600083015261343c81612e11565b9050919050565b6000602082019050818103600083015261345c81612e57565b9050919050565b6000602082019050818103600083015261347c81612e7a565b9050919050565b6000602082019050818103600083015261349c81612e9d565b9050919050565b600060208201905081810360008301526134bc81612ec0565b9050919050565b600060208201905081810360008301526134dc81612ee3565b9050919050565b600060208201905081810360008301526134fc81612f06565b9050919050565b6000602082019050818103600083015261351c81612f29565b9050919050565b6000602082019050818103600083015261353c81612f4c565b9050919050565b6000602082019050818103600083015261355c81612f6f565b9050919050565b6000610140820190506135796000830184612f92565b92915050565b6000610180820190506135956000830186612f92565b6135a3610140830185612ab1565b6135b161016083018461306d565b949350505050565b6000610160820190506135cf6000830185612f92565b6135dd61014083018461306d565b9392505050565b60006020820190506135f9600083018461306d565b92915050565b600061360961361a565b90506136158282613991565b919050565b6000604051905090565b600067ffffffffffffffff82111561363f5761363e613b31565b5b602082029050602081019050919050565b600067ffffffffffffffff82111561366b5761366a613b31565b5b602082029050602081019050919050565b600067ffffffffffffffff82111561369757613696613b31565b5b6136a082613b7e565b9050602081019050919050565b60008190508160005260206000209050919050565b600081519050919050565b600081519050919050565b600082825260208201905092915050565b600081905092915050565b600082825260208201905092915050565b600081905092915050565b600061371b826138be565b9150613726836138be565b9250827fffffffffffffffffffffffffffffffffffffffffffffffffffffffffffffffff0382111561375b5761375a613a46565b5b828201905092915050565b6000613771826138be565b915061377c836138be565b92508261378c5761378b613a75565b5b828204905092915050565b60006137a2826138be565b91506137ad836138be565b9250817fffffffffffffffffffffffffffffffffffffffffffffffffffffffffffffffff04831182151516156137e6576137e5613a46565b5b828202905092915050565b60006137fc826138be565b9150613807836138be565b92508282101561381a57613819613a46565b5b828203905092915050565b60006138308261389e565b9050919050565b60008115159050919050565b6000819050919050565b60007fffffffff0000000000000000000000000000000000000000000000000000000082169050919050565b600061388482613825565b9050919050565b60008190506138998261409a565b919050565b600073ffffffffffffffffffffffffffffffffffffffff82169050919050565b6000819050919050565b600060ff82169050919050565b60006138e0826138e7565b9050919050565b60006138f28261389e565b9050919050565b60006139048261388b565b9050919050565b6000613916826138c8565b9050919050565b82818337600083830152505050565b60005b8381101561394a57808201518184015260208101905061392f565b83811115613959576000848401525b50505050565b6000600282049050600182168061397757607f821691505b6020821081141561398b5761398a613ad3565b5b50919050565b61399a82613b7e565b810181811067ffffffffffffffff821117156139b9576139b8613b31565b5b80604052505050565b60006139cd826138be565b91507fffffffffffffffffffffffffffffffffffffffffffffffffffffffffffffffff821415613a00576139ff613a46565b5b600182019050919050565b6000819050919050565b6000613a20826138be565b9150613a2b836138be565b925082613a3b57613a3a613a75565b5b828206905092915050565b7f4e487b7100000000000000000000000000000000000000000000000000000000600052601160045260246000fd5b7f4e487b7100000000000000000000000000000000000000000000000000000000600052601260045260246000fd5b7f4e487b7100000000000000000000000000000000000000000000000000000000600052602160045260246000fd5b7f4e487b7100000000000000000000000000000000000000000000000000000000600052602260045260246000fd5b7f4e487b7100000000000000000000000000000000000000000000000000000000600052603260045260246000fd5b7f4e487b7100000000000000000000000000000000000000000000000000000000600052604160045260246000fd5b600080fd5b600080fd5b600080fd5b600080fd5b600080fd5b600080fd5b6000601f19601f8301169050919050565b7f19457468657265756d205369676e6564204d6573736167653a0a333200000000600082015250565b7f4f776e61626c653a206e6577206f776e657220697320746865207a65726f206160008201527f6464726573730000000000000000000000000000000000000000000000000000602082015250565b7f4475726174696f6e20666f7220726574726965732073686f756c64206265206760008201527f726561746572207468616e20313220686f757273000000000000000000000000602082015250565b7f416c726561647920706169640000000000000000000000000000000000000000600082015250565b7f416464726573733a20696e73756666696369656e742062616c616e636520666f60008201527f722063616c6c0000000000000000000000000000000000000000000000000000602082015250565b7f43616c6c6572206973206e6f742070617965652e000000000000000000000000600082015250565b7f4e6f7420612076616c69642063757272656e6379000000000000000000000000600082015250565b7f496e697469616c697a61626c653a20636f6e747261637420697320616c72656160008201527f647920696e697469616c697a6564000000000000000000000000000000000000602082015250565b7f4f6e6c79206578656375746f7220636f6e747261637400000000000000000000600082015250565b7f4f776e61626c653a2063616c6c6572206973206e6f7420746865206f776e6572600082015250565b7f416d6f756e742063616e6e6f7420626520300000000000000000000000000000600082015250565b7f43616c6c6572206973206e6f742061646d696e00000000000000000000000000600082015250565b7f5369676e617475726520766572696669636174696f6e206661696c6564000000600082015250565b7f4f7574206f662072616e67650000000000000000000000000000000000000000600082015250565b7f416464726573733a2063616c6c20746f206e6f6e2d636f6e7472616374000000600082015250565b7f2d00000000000000000000000000000000000000000000000000000000000000600082015250565b7f43616e63656c6c656420696e766f696365000000000000000000000000000000600082015250565b7f496e697469616c697a61626c653a20636f6e7472616374206973206e6f74206960008201527f6e697469616c697a696e67000000000000000000000000000000000000000000602082015250565b7f4578706972792073686f756c642062652067726561746572207468616e20323460008201527f20686f7572730000000000000000000000000000000000000000000000000000602082015250565b7f43616e6e6f7420657865637574652e204e6f7420696e2072616e676500000000600082015250565b7f5361666545524332303a204552433230206f7065726174696f6e20646964206e60008201527f6f74207375636365656400000000000000000000000000000000000000000000602082015250565b7f4e6f742061207061796565000000000000000000000000000000000000000000600082015250565b7f416c726561647920637265617465640000000000000000000000000000000000600082015250565b7f496e766f696365206e6f7420666f756e64000000000000000000000000000000600082015250565b7f496e766f69636520746f6f20736f6f6e2e2043616e6e6f742070726f63657373600082015250565b600681106140ab576140aa613aa4565b5b50565b6140b781613825565b81146140c257600080fd5b50565b6140ce81613837565b81146140d957600080fd5b50565b6140e581613843565b81146140f057600080fd5b50565b6140fc8161384d565b811461410757600080fd5b50565b61411381613879565b811461411e57600080fd5b50565b6006811061412e57600080fd5b50565b61413a816138be565b811461414557600080fd5b5056fea2646970667358221220afddc2ce8dc84ebdc111eaf08d11a9935dcd4363cceffd0ae7443f07690dc4a464736f6c63430008060033",
  "devdoc": {
    "kind": "dev",
    "methods": {
      "owner()": {
        "details": "Returns the address of the current owner."
      },
      "renounceOwnership()": {
        "details": "Leaves the contract without owner. It will not be possible to call `onlyOwner` functions anymore. Can only be called by the current owner. NOTE: Renouncing ownership will leave the contract without an owner, thereby removing any functionality that is only available to the owner."
      },
      "transferOwnership(address)": {
        "details": "Transfers ownership of the contract to a new account (`newOwner`). Can only be called by the current owner."
      }
    },
    "version": 1
  },
  "userdoc": {
    "kind": "user",
    "methods": {},
    "version": 1
  },
  "storageLayout": {
    "storage": [
      {
        "astId": 152,
        "contract": "contracts/Invoice/Invoice.sol:Invoice",
        "label": "_initialized",
        "offset": 0,
        "slot": "0",
        "type": "t_uint8"
      },
      {
        "astId": 155,
        "contract": "contracts/Invoice/Invoice.sol:Invoice",
        "label": "_initializing",
        "offset": 1,
        "slot": "0",
        "type": "t_bool"
      },
      {
        "astId": 1034,
        "contract": "contracts/Invoice/Invoice.sol:Invoice",
        "label": "__gap",
        "offset": 0,
        "slot": "1",
        "type": "t_array(t_uint256)50_storage"
      },
      {
        "astId": 10,
        "contract": "contracts/Invoice/Invoice.sol:Invoice",
        "label": "_owner",
        "offset": 0,
        "slot": "51",
        "type": "t_address"
      },
      {
        "astId": 130,
        "contract": "contracts/Invoice/Invoice.sol:Invoice",
        "label": "__gap",
        "offset": 0,
        "slot": "52",
        "type": "t_array(t_uint256)49_storage"
      },
      {
        "astId": 310,
        "contract": "contracts/Invoice/Invoice.sol:Invoice",
        "label": "_status",
        "offset": 0,
        "slot": "101",
        "type": "t_uint256"
      },
      {
        "astId": 354,
        "contract": "contracts/Invoice/Invoice.sol:Invoice",
        "label": "__gap",
        "offset": 0,
        "slot": "102",
        "type": "t_array(t_uint256)49_storage"
      },
      {
        "astId": 3330,
        "contract": "contracts/Invoice/Invoice.sol:Invoice",
        "label": "_admins",
        "offset": 0,
        "slot": "151",
        "type": "t_mapping(t_address,t_bool)"
      },
      {
        "astId": 2592,
        "contract": "contracts/Invoice/Invoice.sol:Invoice",
        "label": "UNIQUE_INDENTIFIER",
        "offset": 0,
        "slot": "152",
        "type": "t_string_storage"
      },
      {
        "astId": 2594,
        "contract": "contracts/Invoice/Invoice.sol:Invoice",
        "label": "EXECUTOR_CONTRACT",
        "offset": 0,
        "slot": "153",
        "type": "t_address"
      },
      {
        "astId": 2661,
        "contract": "contracts/Invoice/Invoice.sol:Invoice",
        "label": "feePercent",
        "offset": 0,
        "slot": "154",
        "type": "t_uint256"
      },
      {
        "astId": 2666,
        "contract": "contracts/Invoice/Invoice.sol:Invoice",
        "label": "_durations",
        "offset": 0,
        "slot": "155",
        "type": "t_mapping(t_enum(Frequency)2541,t_uint256)"
      },
      {
        "astId": 2670,
        "contract": "contracts/Invoice/Invoice.sol:Invoice",
        "label": "_createdInvoices",
        "offset": 0,
        "slot": "156",
        "type": "t_mapping(t_bytes32,t_bool)"
      },
      {
        "astId": 2676,
        "contract": "contracts/Invoice/Invoice.sol:Invoice",
        "label": "_paidInvoices",
        "offset": 0,
        "slot": "157",
        "type": "t_mapping(t_bytes32,t_mapping(t_uint256,t_bool))"
      },
      {
        "astId": 2680,
        "contract": "contracts/Invoice/Invoice.sol:Invoice",
        "label": "cancelledInvoices",
        "offset": 0,
        "slot": "158",
        "type": "t_mapping(t_uint256,t_bool)"
      },
      {
        "astId": 2684,
        "contract": "contracts/Invoice/Invoice.sol:Invoice",
        "label": "payees",
        "offset": 0,
        "slot": "159",
        "type": "t_mapping(t_address,t_bool)"
      },
      {
        "astId": 2689,
        "contract": "contracts/Invoice/Invoice.sol:Invoice",
        "label": "currencies",
        "offset": 0,
        "slot": "160",
        "type": "t_mapping(t_contract(IERC20Upgradeable)433,t_bool)"
      },
      {
        "astId": 2691,
        "contract": "contracts/Invoice/Invoice.sol:Invoice",
        "label": "nonce",
        "offset": 0,
        "slot": "161",
        "type": "t_uint256"
      }
    ],
    "types": {
      "t_address": {
        "encoding": "inplace",
        "label": "address",
        "numberOfBytes": "20"
      },
      "t_array(t_uint256)49_storage": {
        "base": "t_uint256",
        "encoding": "inplace",
        "label": "uint256[49]",
        "numberOfBytes": "1568"
      },
      "t_array(t_uint256)50_storage": {
        "base": "t_uint256",
        "encoding": "inplace",
        "label": "uint256[50]",
        "numberOfBytes": "1600"
      },
      "t_bool": {
        "encoding": "inplace",
        "label": "bool",
        "numberOfBytes": "1"
      },
      "t_bytes32": {
        "encoding": "inplace",
        "label": "bytes32",
        "numberOfBytes": "32"
      },
      "t_contract(IERC20Upgradeable)433": {
        "encoding": "inplace",
        "label": "contract IERC20Upgradeable",
        "numberOfBytes": "20"
      },
      "t_enum(Frequency)2541": {
        "encoding": "inplace",
        "label": "enum AbstractInvoice.Frequency",
        "numberOfBytes": "1"
      },
      "t_mapping(t_address,t_bool)": {
        "encoding": "mapping",
        "key": "t_address",
        "label": "mapping(address => bool)",
        "numberOfBytes": "32",
        "value": "t_bool"
      },
      "t_mapping(t_bytes32,t_bool)": {
        "encoding": "mapping",
        "key": "t_bytes32",
        "label": "mapping(bytes32 => bool)",
        "numberOfBytes": "32",
        "value": "t_bool"
      },
      "t_mapping(t_bytes32,t_mapping(t_uint256,t_bool))": {
        "encoding": "mapping",
        "key": "t_bytes32",
        "label": "mapping(bytes32 => mapping(uint256 => bool))",
        "numberOfBytes": "32",
        "value": "t_mapping(t_uint256,t_bool)"
      },
      "t_mapping(t_contract(IERC20Upgradeable)433,t_bool)": {
        "encoding": "mapping",
        "key": "t_contract(IERC20Upgradeable)433",
        "label": "mapping(contract IERC20Upgradeable => bool)",
        "numberOfBytes": "32",
        "value": "t_bool"
      },
      "t_mapping(t_enum(Frequency)2541,t_uint256)": {
        "encoding": "mapping",
        "key": "t_enum(Frequency)2541",
        "label": "mapping(enum AbstractInvoice.Frequency => uint256)",
        "numberOfBytes": "32",
        "value": "t_uint256"
      },
      "t_mapping(t_uint256,t_bool)": {
        "encoding": "mapping",
        "key": "t_uint256",
        "label": "mapping(uint256 => bool)",
        "numberOfBytes": "32",
        "value": "t_bool"
      },
      "t_string_storage": {
        "encoding": "bytes",
        "label": "string",
        "numberOfBytes": "32"
      },
      "t_uint256": {
        "encoding": "inplace",
        "label": "uint256",
        "numberOfBytes": "32"
      },
      "t_uint8": {
        "encoding": "inplace",
        "label": "uint8",
        "numberOfBytes": "1"
      }
    }
  }
}